:100000000C9428010C9459010C9459010C94590139
:100010000C9459010C9459010C9459010C945901F8
:100020000C9459010C9459010C9459010C945901E8
:100030000C9459010C9459010C9459010C945901D8
:100040000C9459010C9459010C9459010C945901C8
:100050000C9459010C9459010C9459010C94B5035A
:100060000C9459010C9489040C945F040C9459016C
:100070000C9459010C9459010C9459010C94590198
:100080000C9459010C9459010C9459010C94590188
:100090000C9429040C94FF030C9459010C945901FD
:1000A0000C9459010C9459010C9459010C94590168
:1000B0000C9459010C9459010C9459010C94590158
:1000C0000C9459010C9459010C9459010C94590148
:1000D0000C9459010C9459010C9459010C94590138
:1000E0000C9459010C945A020C947D020C94EC016E
:1000F0000C942D020C94F4010C9415020C94FD0147
:100100000C9469020C94D6010C94F0010C94190221
:100110000C940B020C9401020C94E8010C94CD0297
:100120000C9423020C94F7010C9427020C94D10137
:100130000C948B020C9407020C941A030C940F027B
:100140000C941D020C94BF0400000A0B02090C0D54
:100150000E0807030401000000000000000000007A
:10016000000000000000000000000000000000008F
:10017000000000001211100000000000000000004C
:10018000000000000000000000000000000000006F
:100190002200250028002B002E003100340002012F
:1001A0000000050108010B010000210024002700C8
:1001B0002A002D0030003300010100000401070176
:1001C0000A010505050507050808080802020202DC
:1001D0000A0A0808040404040101010101010101E3
:1001E0000303030303030303040707070C0C0C0CAE
:1001F0000C0C0C0C02020202060606060606060697
:100200000B0B0B0B0B0B0B0B010210202008081023
:100210002040102040800201020108040201010276
:10022000040810204080804020100804020180044F
:1002300002018040201008040201080402010102AA
:100240000408102040800102040810204080BF04F0
:1002500011241FBECFEFD1E2DEBFCDBF00E00CBF47
:1002600012E0A0E0B2E0E6E6FDE000E00BBF02C075
:1002700007900D92A631B107D9F723E0A6E1B2E0CD
:1002800001C01D92AC37B207E1F711E0C8E2D1E03E
:1002900000E006C021970109802FFE010E94A906F7
:1002A000C732D10780E00807A9F70E9412050C9415
:1002B000B1060C940000FC01A089B18982E08C9306
:1002C000A485B5851C92A685B7858FE38C93108E87
:1002D000A489B58986E08C93A289B3898C918061C9
:1002E0008C93A289B3898C9188608C93A289B389FD
:1002F0008C9180688C930288F389E02D80818F7DBA
:100300008083089590E0FC01E85FFD4F24918E53B7
:100310009E4FFC018491882399F090E0880F991FEB
:10032000FC01E855FE4FA591B491FC01E257FE4F48
:10033000859194918FB7F894EC91E22BEC938FBF59
:100340000895282F30E0F901E85BFE4F9491F90100
:10035000E85FFD4F44912E533E4FF9012491222333
:1003600009F435C0992311F191509231F8F4E92F35
:10037000F0E08827E154FE4F8F4F0C94A906F0015E
:10038000F401D101E801EC01D601F701FD01010200
:1003900007020B020F0215021902D6011D022302E9
:1003A0002702809180008F7780938000E22FF0E019
:1003B000EE0FFF1FE257FE4FA591B4918FB7F8944F
:1003C000EC91611148C040954E234C938FBF089526
:1003D000809180008F7DE8CF80918000877FE4CF7F
:1003E00084B58F7784BDE2CF84B58F7DFBCF8091BC
:1003F000B0008F778093B000D9CF8091B0008F7D0F
:10040000F9CF809190008F7780939000CFCF80912B
:1004100090008F7DF9CF80919000877FF5CF8091FC
:10042000A0008F778093A000C1CF8091A0008F7D26
:10043000F9CF8091A000877FF5CF809120018F7741
:1004400080932001B3CF809120018F7DF9CF8091DF
:100450002001877FF5CF4E2BB8CFAF92BF92CF92BE
:10046000DF92EF92FF920F931F93CF93DF936C0174
:100470007B018B01040F151FEB015E01AE18BF0855
:10048000C017D10759F06991D601ED91FC91019007
:10049000F081E02DC6011995892B79F7C501DF910F
:1004A000CF911F910F91FF90EF90DF90CF90BF9071
:1004B000AF900895FC01538D448D252F30E0842F9B
:1004C00090E0821B930B541710F0CF96089501977C
:1004D0000895FC01918D828D981761F0A28DAE0F69
:1004E000BF2FB11D5D968C91928D9F5F9F73928FF0
:1004F00090E008958FEF9FEF0895FC01918D828D1C
:10050000981731F0828DE80FF11D858D90E00895E8
:100510008FEF9FEF0895FC01918D228D892F90E040
:10052000805C9F4F821B91098F739927089582E405
:1005300092E00E948B0221E0892B09F420E0822FB7
:1005400008958FED92E00E948B0221E0892B09F43F
:1005500020E0822F0895FC01A48DA80FB92FB11DB2
:10056000A35ABF4F2C91848D90E001968F739927E9
:10057000848FA689B7892C93A089B1898C918370C7
:1005800080648C93938D848D981306C00288F389C0
:10059000E02D80818F7D80830895EF92FF920F93ED
:1005A0001F93CF93DF93EC0181E0888F9B8D8C8D1F
:1005B00098131AC0E889F989808185FF15C09FB713
:1005C000F894EE89FF896083E889F98980818370D6
:1005D000806480839FBF81E090E0DF91CF911F9185
:1005E0000F91FF90EF900895F62E0B8D10E00F5FA6
:1005F0001F4F0F731127E02E8C8D8E110CC00FB67C
:1006000007FCFACFE889F989808185FFF5CFCE0113
:100610000E94AB02F1CFEB8DEC0FFD2FF11DE35AE1
:10062000FF4FF0829FB7F8940B8FEA89FB89808196
:100630008062CFCFCF93DF93EC01888D8823B9F010
:10064000AA89BB89E889F9898C9185FD03C08081DD
:1006500086FD0DC00FB607FCF7CF8C9185FFF2CF5A
:10066000808185FFEDCFCE010E94AB02E9CFDF9103
:10067000CF91089580E090E0892B29F00E94A1029B
:1006800081110E94000080E090E0892B29F00E94F7
:10069000970281110E94000080E090E0892B49F0D0
:1006A00080E090E0892B29F00E94000081110E94D7
:1006B000000080E090E0892B49F080E090E0892BF9
:1006C00029F00E94000081110C94000008958F927F
:1006D0009F92AF92BF920F931F93CF93DF93CDB7AB
:1006E000DEB7A1970FB6F894DEBF0FBECDBF19A23B
:1006F000423008F44AE08E010F5D1F4F842E912C8A
:10070000B12CA12CA50194010E948706E62FB90106
:10071000CA01EA3044F5E05DD801EE938D01232B48
:10072000242B252B79F790E080E0109769F0FD01EC
:1007300001900020E9F73197AF014A1B5B0BBD0127
:100740008FED92E00E942D02A1960FB6F894DEBFC5
:100750000FBECDBFDF91CF911F910F91BF90AF9092
:100760009F908F900895E95CD7CF1F920F920FB69C
:100770000F9211242F933F938F939F93AF93BF9327
:1007800080913E0290913F02A0914002B0914102BF
:1007900030913D0223E0230F2D3758F50196A11D1E
:1007A000B11D20933D0280933E0290933F02A0939F
:1007B0004002B09341028091390290913A02A09197
:1007C0003B02B0913C020196A11DB11D80933902FC
:1007D00090933A02A0933B02B0933C02BF91AF9139
:1007E0009F918F913F912F910F900FBE0F901F906F
:1007F000189526E8230F0296A11DB11DD2CF1F9296
:100800000F920FB60F9211240BB60F922F933F93B6
:100810004F935F936F937F938F939F93AF93BF9308
:10082000EF93FF9382E492E00E94AB02FF91EF917D
:10083000BF91AF919F918F917F916F915F914F91F8
:100840003F912F910F900BBE0F900FBE0F901F90F6
:1008500018951F920F920FB60F9211240BB60F929C
:100860002F938F939F93EF93FF93E0915202F09118
:1008700053028081E0915802F091590282FD1DC01F
:10088000908180915B028F5F8F7320915C02821751
:1008900041F0E0915B02F0E0EE5BFD4F958F8093BD
:1008A0005B02FF91EF919F918F912F910F900BBE63
:1008B0000F900FBE0F901F9018958081F2CF1F925E
:1008C0000F920FB60F9211240BB60F922F933F93F6
:1008D0004F935F936F937F938F939F93AF93BF9348
:1008E000EF93FF938FED92E00E94AB02FF91EF91A7
:1008F000BF91AF919F918F917F916F915F914F9138
:100900003F912F910F900BBE0F900FBE0F901F9035
:1009100018951F920F920FB60F9211240BB60F92DB
:100920002F938F939F93EF93FF93E091EF02F091BA
:10093000F0028081E091F502F091F60282FD1DC087
:1009400090818091F8028F5F8F732091F902821756
:1009500041F0E091F802F0E0E152FD4F958F809375
:10096000F802FF91EF919F918F912F910F900BBE05
:100970000F900FBE0F901F9018958081F2CFE2E488
:10098000F2E01382128248EE53E060E070E04483AC
:1009900055836683778384E092E0918380832DEC96
:1009A00030E0358724872CEC30E03787268728EC29
:1009B00030E0318B208B29EC30E0338B228B2AEC1A
:1009C00030E0358B248B2EEC30E0378B268B118E6C
:1009D000128E138E148EEFEDF2E013821282448396
:1009E0005583668377839183808385EC90E0958738
:1009F000848784EC90E09787868780EC90E0918BE9
:100A0000808B81EC90E0938B828B82EC90E0958BD5
:100A1000848B86EC90E0978B868B118E128E138ED2
:100A2000148E0895789484B5826084BD84B5816005
:100A300084BD85B5826085BD85B5816085BD8091A9
:100A40006E00816080936E00109281008091810021
:100A50008260809381008091810081608093810019
:100A6000809180008160809380008091B1008460DB
:100A70008093B1008091B00081608093B00080913C
:100A800091008260809391008091910081608093B9
:100A90009100809190008160809390008091A100EE
:100AA00082608093A1008091A10081608093A10069
:100AB0008091A00081608093A000809121018260DC
:100AC0008093210180912101816080932101809197
:100AD000200181608093200180917A00846080935E
:100AE0007A0080917A00826080937A0080917A0007
:100AF000816080937A0080917A00806880937A0088
:100B00001092C10082E492E00E945B018FED92E0BE
:100B10000E945B0182E00E94820183E00E948201C8
:100B200084E00E94820185E00E94820186E00E94AA
:100B3000820187E00E94820188E00E94820189E0B0
:100B40000E9482018AE00E9482018BE00E94820161
:100B50008CE00E9482018DE00E948201BB24B3944C
:100B60000CE010E098E1E92EF12C24E2C22ED12C09
:100B700082E492E00E948B02181619060CF055C010
:100B800082E492E00E946902EC012C01990F660850
:100B900077084AE0C301B20177FE0DC06DE28FED28
:100BA00092E00E94CD0266277727CB016419750970
:100BB000860997094AE00E94670342E050E062E13B
:100BC00072E08FED92E00E942D02CC3BD10559F1ED
:100BD000C83FD10569F180913602909137028B3080
:100BE00091050CF080C0F801E81BF90BEA5EFD4F9F
:100BF0002C2F21702083F701E81BF90BEA5EFD4FD3
:100C00002C2F269521702083F601E81BF90BEA5E54
:100C1000FD4FC2FBCC27C0F9C083019690933702E9
:100C20008093360202C0B09238020E943A03A0CFED
:100C3000809138028823C9F310923802C6E1D2E0CD
:100C4000912C812C60E08DE00E94A101682D6170E3
:100C50008AE00E94A101B401759567958BE00E941E
:100C6000A10160E08CE00E94A10168816B2582E017
:100C70000E94A10169816B2584E00E94A1016A8123
:100C80006B2583E00E94A1016B816B2588E00E94A7
:100C9000A1016C816B2589E00E94A1016D816B250A
:100CA00087E00E94A1016E816B2585E00E94A10171
:100CB0006F816B2586E00E94A10161E08DE00E94BA
:100CC000A10160E08DE00E94A1012FEF821A920A3B
:100CD000289634E08316910409F0B4CF10923702BD
:100CE00010923602A2CF8B30910509F096CFC3FB4C
:100CF000222720F9209331022C2F22952170209356
:100D00003202C5FBCC27C0F9C093330286CFA1E2E3
:100D10001A2EAA1BBB1BFD010DC0AA1FBB1FEE1F75
:100D2000FF1FA217B307E407F50720F0A21BB30BC0
:100D3000E40BF50B661F771F881F991F1A9469F73C
:100D400060957095809590959B01AC01BD01CF0198
:100D50000895EE0FFF1F881F8BBF0790F691E02DBF
:060D60001994F894FFCF86
:100D660000000000CD022D025A021A038B0269020E
:060D76007D020D0A0000E1
:00000001FF
